:020000040800F2
:1000000000000120B14A0008B9460008C5460008B2
:10001000CB460008D1460008D74600080000000083
:10002000000000000000000000000000DD460008A5
:10003000E946000800000000F546000801470008F6
:10004000F94A0008F94A0008F94A0008F94A000884
:10005000F94A0008F94A0008F94A0008F94A000874
:10006000F94A0008F94A0008F94A0008F94A000864
:10007000F94A0008F94A0008F94A0008F94A000854
:10008000F94A0008F94A0008F94A0008F94A000844
:10009000F94A0008F94A0008F94A0008F94A000834
:1000A000F94A0008F94A0008F94A0008F94A000824
:1000B000F94A00080D470008F94A0008F94A000803
:1000C000F94A0008F94A0008F94A0008F94A000804
:1000D000F94A000821470008F94A0008F94A0008CF
:1000E000F94A0008F94A0008F94A0008F94A0008E4
:1000F000F94A0008F94A0008F94A0008F94A0008D4
:10010000F94A0008F94A0008F94A0008F94A0008C3
:10011000F94A0008F94A0008F94A0008F94A0008B3
:10012000F94A0008F94A0008F94A0008F94A0008A3
:1001300000000000000000000000000000000000BF
:1001400000000000000000000000000000000000AF
:10015000000000000000000000000000000000009F
:10016000000000000000000000000000000000008F
:10017000000000000000000000000000000000007F
:10018000000000000000000000000000000000006F
:10019000000000000000000000000000000000005F
:1001A000000000000000000000000000000000004F
:1001B000000000000000000000000000000000003F
:1001C000000000000000000000000000000000002F
:1001D000000000000000000000000000000000001F
:0401E0005FF8E0F1F3
:1001E80010B5054C237833B9044B13B10448AFF369
:1001F80000800123237010BD800000200000000053
:10020800205A000808B5034B1BB103490348AFF354
:10021800008008BD0000000084000020205A00086B
:1002280081F0004102E000BF83F0004330B54FEA9F
:1002380041044FEA430594EA050F08BF90EA020F0C
:100248001FBF54EA000C55EA020C7FEA645C7FEA9F
:10025800655C00F0E2804FEA5454D4EB5555B8BFC2
:100268006D420CDD2C4480EA020281EA030382EA33
:10027800000083EA010180EA020281EA0303362DC5
:1002880088BF30BD11F0004F4FEA01314FF4801C98
:100298004CEA113102D0404261EB410113F0004FAA
:1002A8004FEA03334CEA133302D0524263EB430361
:1002B80094EA050F00F0A780A4F10104D5F1200EFF
:1002C8000DDB02FA0EFC22FA05F2801841F100015A
:1002D80003FA0EF2801843FA05F359410EE0A5F12E
:1002E80020050EF1200E012A03FA0EFC28BF4CF05F
:1002F800020C43FA05F3C01851EBE37101F0004515
:1003080007D54FF0000EDCF1000C7EEB00006EEB21
:100318000101B1F5801F1BD3B1F5001F0CD34908AB
:100328005FEA30004FEA3C0C04F101044FEA445202
:1003380012F5800F80F09A80BCF1004F08BF5FEA89
:10034800500C50F1000041EB045141EA050130BD69
:100358005FEA4C0C404141EB0101013C28BFB1F57B
:10036800801FE9D291F0000F04BF01460020B1FAC6
:1003780081F308BF2033A3F10B03B3F120020CDA99
:100388000C3208DD02F1140CC2F10C0201FA0CF077
:1003980021FA02F10CE002F11402D8BFC2F1200CDC
:1003A80001FA02F120FA0CFCDCBF41EA0C01904092
:1003B800E41AA2BF01EB0451294330BD6FEA0404DB
:1003C8001F3C1CDA0C340EDC04F11404C4F12002C6
:1003D80020FA04F001FA02F340EA030021FA04F3D8
:1003E80045EA030130BDC4F10C04C4F1200220FA2F
:1003F80002F001FA04F340EA0300294630BD21FA6D
:1004080004F0294630BD94F0000F83F4801306BF32
:1004180081F480110134013D4EE77FEA645C18BF26
:100428007FEA655C29D094EA050F08BF90EA020FBD
:1004380005D054EA000C04BF1946104630BD91EAB5
:10044800030F1EBF0021002030BD5FEA545C05D1B8
:100458004000494128BF41F0004130BD14F58004F7
:100468003CBF01F5801130BD01F0004545F0FE416B
:1004780041F470014FF0000030BD7FEA645C1ABFA0
:10048800194610467FEA655C1CBF0B46024650EAD7
:10049800013406BF52EA033591EA030F41F4002103
:1004A80030BD00BF90F0000F04BF0021704730B589
:1004B8004FF4806404F132044FF000054FF000015E
:1004C80050E700BF90F0000F04BF0021704730B51F
:1004D8004FF4806404F1320410F0004548BF4042F4
:1004E8004FF000013EE700BF42004FEAE2014FEA49
:1004F80031014FEA02701FBF12F07F4393F07F4F24
:1005080081F06051704732F07F4208BF704793F026
:100518007F4F04BF41F40021704730B54FF4607439
:1005280001F0004521F000411CE700BF50EA01023C
:1005380008BF704730B54FF000050AE050EA0102E5
:1005480008BF704730B511F0004502D5404261EB55
:1005580041014FF4806404F132045FEA915C3FF496
:10056800D8AE4FF003025FEADC0C18BF03325FEA33
:10057800DC0C18BF033202EBDC02C2F1200300FAE4
:1005880003FC20FA02F001FA03FE40EA0E0021FA09
:1005980002F11444BDE600BF70B54FF0FF0C4CF4F7
:1005A800E06C1CEA11541DBF1CEA135594EA0C0FA9
:1005B80095EA0C0F00F0DEF82C4481EA030621EAE4
:1005C8004C5123EA4C5350EA013518BF52EA03351F
:1005D80041F4801143F4801338D0A0FB02CE4FF0D1
:1005E8000005E1FB02E506F00042E0FB03E54FF001
:1005F8000006E1FB03569CF0000F18BF4EF0010EF9
:10060800A4F1FF04B6F5007F64F5407404D25FEAF4
:100618004E0E6D4146EB060642EAC62141EA5551A7
:100628004FEAC52040EA5E504FEACE2EB4F1FD0CE9
:1006380088BFBCF5E06F1ED8BEF1004F08BF5FEA67
:10064800500E50F1000041EB045170BD06F0004619
:1006580046EA010140EA020081EA0301B4EB5C04C6
:10066800C2BFD4EB0C0541EA045170BD41F48011BE
:100678004FF0000E013C00F3AB8014F1360FDEBFE3
:10068800002001F0004170BDC4F10004203C35DABF
:100698000C341BDC04F11404C4F1200500FA05F342
:1006A80020FA04F001FA05F240EA020001F00042E3
:1006B80021F0004110EBD37021FA04F642EB060159
:1006C8005EEA430E08BF20EAD37070BDC4F10C0483
:1006D800C4F1200500FA04F320FA05F001FA04F247
:1006E80040EA020001F0004110EBD37041F1000133
:1006F8005EEA430E08BF20EAD37070BDC4F120053E
:1007080000FA05F24EEA020E20FA04F301FA05F2A5
:1007180043EA020321FA04F001F0004121FA04F24D
:1007280020EA020000EBD3705EEA430E08BF20EA1D
:10073800D37070BD94F0000F0FD101F00046400057
:1007480041EB010111F4801F08BF013CF7D041EAD9
:10075800060195F0000F18BF704703F000465200DD
:1007680043EB030313F4801F08BF013DF7D043EAAE
:100778000603704794EA0C0F0CEA135518BF95EA64
:100788000C0F0CD050EA410618BF52EA4306D1D1EB
:1007980081EA030101F000414FF0000070BD50EA0A
:1007A800410606BF1046194652EA430619D094EA94
:1007B8000C0F02D150EA013613D195EA0C0F05D17E
:1007C80052EA03361CBF104619460AD181EA0301D2
:1007D80001F0004141F0FE4141F470014FF000008A
:1007E80070BD41F0FE4141F4780170BD70B54FF025
:1007F800FF0C4CF4E06C1CEA11541DBF1CEA1355A5
:1008080094EA0C0F95EA0C0F00F0A7F8A4EB050486
:1008180081EA030E52EA03354FEA013100F088807D
:100828004FEA03334FF0805545EA131343EA126346
:100838004FEA022245EA111545EA10654FEA0026FB
:100848000EF000419D4208BF964244F1FD0404F5B4
:10085800407402D25B084FEA3202B61A65EB030510
:100868005B084FEA32024FF480104FF4002CB6EBCD
:10087800020E75EB030E22BFB61A754640EA0C004D
:100888005B084FEA3202B6EB020E75EB030E22BF8D
:10089800B61A754640EA5C005B084FEA3202B6EBCE
:1008A800020E75EB030E22BFB61A754640EA9C008D
:1008B8005B084FEA3202B6EB020E75EB030E22BF5D
:1008C800B61A754640EADC0055EA060E18D04FEA1B
:1008D800051545EA16754FEA06164FEAC30343EABB
:1008E80052734FEAC2025FEA1C1CC0D111F4801F88
:1008F8000BD141EA00014FF000004FF0004CB6E781
:1009080011F4801F04BF01430020B4F1FD0C88BF1F
:10091800BCF5E06F3FF6AFAEB5EB030C04BFB6EB2A
:10092800020C5FEA500C50F1000041EB045170BD1D
:100938000EF0004E4EEA113114EB5C04C2BFD4EB4A
:100948000C0541EA045170BD41F480114FF0000ECE
:10095800013C90E645EA060E8DE60CEA135594EA4A
:100968000C0F08BF95EA0C0F3FF43BAF94EA0C0F4D
:100978000AD150EA01347FF434AF95EA0C0F7FF4C2
:1009880025AF104619462CE795EA0C0F06D152EA16
:1009980003353FF4FDAE1046194622E750EA4106FA
:1009A80018BF52EA43067FF4C5AE50EA41047FF40B
:1009B8000DAF52EA43057FF4EBAE12E74FEA41026E
:1009C80012F5001215D211D56FF47873B3EB625299
:1009D80012D94FEAC12343F0004343EA505311F0C0
:1009E800004F23FA02F018BF404270474FF0000052
:1009F800704750EA013005D111F0004008BF6FF090
:100A0800004070474FF00000704700BF4A0011D205
:100A180012F5001211D20DD56FF47873B3EB625250
:100A28000ED44FEAC12343F0004343EA505323FA5C
:100A380002F070474FF00000704750EA013002D1D1
:100A48004FF0FF3070474FF00000704780B500AF9F
:100A5800084B1B68074A43F010031360032000F09B
:100A680069FD002000F008F803F0F0FD00231846A7
:100A780080BD00BF0020024080B582B000AF786022
:100A8800124B1A68124B1B7819464FF47A73B3FB52
:100A9800F1F3B2FBF3F3184600F081FD0346002B97
:100AA80001D001230EE07B680F2B0AD80022796859
:100AB8004FF0FF3000F049FD064A7B6813600023C1
:100AC80000E0012318460837BD4680BD1800002005
:100AD800040000200000002080B400AF054B1B7804
:100AE8001A46054B1B681344034A136000BFBD46F2
:100AF80080BC7047040000209C00002080B400AF38
:100B0800024B1B681846BD4680BC70479C000020FD
:100B180080B584B000AF7860FFF7F0FFB8607B68FD
:100B2800FB60FB68B3F1FF3F05D00A4B1B781A4600
:100B3800FB681344FB6000BFFFF7E0FF0246BB6899
:100B4800D31AFA689A42F7D800BF00BF1037BD46DB
:100B580080BD00BF0400002080B586B000AF78607B
:100B68000023FB7500233B610023BB600023FB606F
:100B78007B68002B01D10123CEE07B689B68002BAA
:100B88007B689B6A002B09D17B680022DA627B684C
:100B9800002283F82420786803F0E8F8786800F0E9
:100BA800C3FB0346FB757B689B6A03F01003002BAD
:100BB80040F0A980FB7D002B40F0A5807B689B6AF4
:100BC80023F4885323F0020343F002027B689A62FD
:100BD8007B685A687B681B6851498B420AD17B68DD
:100BE800DB69B3F5402F02D07B68DB6904E04FF482
:100BF800002301E07B68DB691A437B681B7B5B0091
:100C08001343BA681343BB607B689B68B3F5807F66
:100C180003D07B689B68012B02D14FF4807300E0FE
:100C280000233A6913433B617B681B7D012B19D173
:100C38007B681B7B002B09D17B689B69013B5A03AE
:100C48003B69134343F400633B610BE07B689B6A99
:100C580043F020027B689A627B68DB6A43F00102FA
:100C68007B68DA627B681B685B6823F469417B6890
:100C78001B683A690A435A607B681B689A68294B63
:100C880013407A681268B9680B4393607B689B6865
:100C9800B3F5807F03D07B689B68012B04D17B6808
:100CA8001B69013B1B05FB607B681B68DB6A23F43F
:100CB80070017B681B68FA680A43DA627B681B6804
:100CC8009A68194B1340BA689A420BD17B68002284
:100CD800DA627B689B6A23F0030343F001027B68B6
:100CE8009A6218E07B689B6A23F0120343F01002B3
:100CF8007B689A627B68DB6A43F001027B68DA6290
:100D08000123FB7507E07B689B6A43F010027B6850
:100D18009A620123FB75FB7D18461837BD4680BDD6
:100D2800003C0140FDF7E1FFFE0E1FFF80B584B0D7
:100D380000AF78600023FB737B6893F82430012BA5
:100D480001D1022398E07B68012283F82420786887
:100D580000F098FA0346FB73FB7B002B40F087807A
:100D68007B689B6A23F4407323F0010343F4807289
:100D78007B689A627B681B68414A934205D1414B64
:100D88005B6803F47023002B15D17B689B6A23F4FE
:100D980080127B689A627B681B685B6803F48063D7
:100DA800002B26D07B689B6A23F4405343F480527F
:100DB8007B689A621DE07B689B6A43F480127B68BB
:100DC8009A627B681B682F4A934204D07B681B6831
:100DD8002B4A93420DD12B4B5B6803F48063002BA5
:100DE80007D07B689B6A23F4405343F480527B68A6
:100DF8009A627B689B6A03F48053002B06D07B6859
:100E0800DB6A23F006027B68DA6202E07B68002274
:100E1800DA627B68002283F824207B681B686FF005
:100E280002021A607B681B689B6803F46023B3F5B1
:100E3800602F13D17B681B68114A934205D1114B6F
:100E48005B6803F47023002B08D17B681B689A68E1
:100E58007B681B6842F4A0029A600CE07B681B6800
:100E68009A687B681B6842F480129A6003E07B688A
:100E7800002283F82420FB7B18461037BD4680BD2E
:100E8800002801400024014090B587B000AF786089
:100E9800396000237B610023FB6000233B61FFF77F
:100EA8002DFE78617B681B689B6803F48073002BB8
:100EB8000BD07B689B6A43F020027B689A627B6850
:100EC800002283F824200123C8E07B681B685B6844
:100ED80003F48073002B2AD17B681B68DB6A03F458
:100EE8007003002B23D11AE03B68B3F1FF3F16D003
:100EF8003B68002B07D0FFF701FE02467B69D31A37
:100F08003A689A420BD27B689B6A43F004027B687A
:100F18009A627B68002283F8242003239EE07B6882
:100F28001B681B6803F00203002BDDD06CE04D4BFF
:100F38001C68022001F0D4FB0346B4FBF3F27B6883
:100F48001B681969484B0B40002B18D17B681B683C
:100F5800D968464B0B40002B11D17B681B68196977
:100F6800434B0B40002B08D17B681B68D968414B69
:100F78000B40002B01D1142320E029231EE07B68BD
:100F88001B6819693A4B0B40002B06D17B681B681C
:100F9800D968384B0B40002B0DD07B681B6819694A
:100FA800354B0B40002B08D17B681B68D968324B46
:100FB8000B40002B01D1542300E0FC2302FB03F378
:100FC8003B611DE03B68B3F1FF3F16D03B68002B47
:100FD80007D0FFF793FD02467B69D31A3A689A4215
:100FE8000BD27B689B6A43F004027B689A627B6839
:100FF800002283F82420032330E0FB680133FB60E0
:10100800FB683A699A42DDD87B681B686FF0120268
:101018001A607B689B6A43F400727B689A627B68FB
:101028001B689B6803F46023B3F5602F15D17B68B8
:101038001B7B002B11D17B689B6A23F480727B6831
:101048009A627B689B6A03F48053002B05D17B6806
:101058009B6A43F001027B689A62002318461C379A
:10106800BD4690BD180000202449922424499200CE
:1010780092244912922449004992240080B483B0F2
:1010880000AF78607B681B68DB6C18460C37BD4680
:1010980080BC704780B485B000AF786039600023A9
:1010A800FB730023BB607B6893F82430012B01D1CC
:1010B8000223DCE07B68012283F824203B685B681C
:1010C800062B1CD87B681B68596B3B685A6813460B
:1010D8009B001344053B1F2202FA03F3DB4319402C
:1010E8003B6818683B685A6813469B001344053BE5
:1010F80000FA03F27B681B680A435A633CE03B68CA
:101108005B680C2B1CD87B681B68196B3B685A689A
:1011180013469B001344233B1F2202FA03F3DB43CD
:1011280019403B6818683B685A6813469B0013448B
:10113800233B00FA03F27B681B680A431A631BE02F
:101148007B681B68D96A3B685A6813469B0013443E
:10115800413B1F2202FA03F3DB4319403B6818683E
:101168003B685A6813469B001344413B00FA03F25C
:101178007B681B680A43DA623B681B68092B1CD929
:101188007B681B68D9683B681A6813465B00134480
:101198001E3B072202FA03F3DB4319403B689868B9
:1011A8003B681A6813465B0013441E3B00FA03F2BF
:1011B8007B681B680A43DA6019E07B681B68196959
:1011C8003B681A6813465B001344072202FA03F3CC
:1011D800DB4319403B6898683B681A6813465B0014
:1011E800134400FA03F27B681B680A431A613B68E0
:1011F8001B68102B03D03B681B68112B32D17B680E
:101208001B681D4A934225D17B681B689B6803F4C1
:101218000003002B26D17B681B689A687B681B68D3
:1012280042F400029A603B681B68102B1AD1134BDA
:101238001B68134AA2FB03239A0C13469B00134412
:101248005B00BB6002E0BB68013BBB60BB68002B76
:10125800F9D107E07B689B6A43F020027B689A62B9
:101268000123FB737B68002283F82420FB7B18464C
:101278001437BD4680BC7047002401401800002088
:1012880083DE1B4380B584B000AF78600023FB6029
:101298000023BB607B681B689B6803F00103012B7C
:1012A80039D07B681B689A687B681B6842F001022A
:1012B8009A601B4B1B681B4AA2FB03239B0CBB6059
:1012C80002E0BB68013BBB60BB68002BF9D1FFF7AC
:1012D80015FCF86018E0FFF711FC0246FB68D31A0A
:1012E800022B11D97B689B6A43F010027B689A62D3
:1012F8007B68DB6A43F001027B68DA627B68002264
:1013080083F82420012307E07B681B689B6803F0AF
:101318000103012BDFD1002318461037BD4680BDDD
:101328001800002083DE1B4380B584B000AF7860CE
:101338000023FB607B681B689B6803F00103012B9B
:1013480027D17B681B689A687B681B6822F00102BA
:101358009A60FFF7D3FBF86014E0FFF7CFFB024673
:10136800FB68D31A022B0DD97B689B6A43F01002E5
:101378007B689A627B68DB6A43F001027B68DA6209
:10138800012307E07B681B689B6803F00103012BBE
:10139800E3D0002318461037BD4680BD80B485B021
:1013A80000AF78607B6803F00703FB600C4BDB68D9
:1013B800BB60BA684FF6FF031340BB60FB681A02B4
:1013C800BB68134343F0BF6343F40033BB60044A74
:1013D800BB68D36000BF1437BD4680BC704700BFF0
:1013E80000ED00E080B400AF044BDB681B0A03F09B
:1013F80007031846BD4680BC704700BF00ED00E0FB
:1014080080B483B000AF0346FB7197F90730002B17
:101418000BDBFB7903F01F02064997F907305B09DC
:10142800012000FA02F241F8232000BF0C37BD4624
:1014380080BC704700E100E080B483B000AF034691
:101448003960FB7197F90730002B0ADB3B68DAB289
:101458000C4997F907301201D2B20B4483F80023E4
:101468000AE03B68DAB20849FB7903F00F03043B52
:101478001201D2B20B441A7600BF0C37BD4680BCAD
:10148800704700BF00E100E000ED00E080B489B0E3
:1014980000AFF860B9607A60FB6803F00703FB618E
:1014A800FB69C3F10703042B28BF0423BB61FB6955
:1014B8000433062B02D9FB69033B00E000237B6160
:1014C8004FF0FF32BB6902FA03F3DA43BB681A40F4
:1014D8007B699A404FF0FF317B6901FA03F3D943E6
:1014E8007B680B40134318462437BD4680BC7047C1
:1014F80080B582B000AF78607B68013BB3F1807F34
:1015080001D301230FE00A4A7B68013B53600F2196
:101518004FF0FF30FFF790FF054B00229A60044B15
:1015280007221A60002318460837BD4680BD00BF51
:1015380010E000E080B582B000AF78607868FFF70F
:101548002DFF00BF0837BD4680BD80B586B000AF0F
:101558000346B9607A60FB7300237B61FFF742FFA3
:1015680078617A68B9687869FFF790FF024697F959
:101578000F3011461846FFF75FFF00BF1837BD460A
:1015880080BD80B582B000AF0346FB7197F9073084
:101598001846FFF735FF00BF0837BD4680BD80B548
:1015A80082B000AF78607868FFF7A2FF034618465C
:1015B8000837BD4680BD000080B483B000AF7860B6
:1015C8007B68042B06D1094B1B68084A43F00403C7
:1015D800136005E0054B1B68044A23F004031360FD
:1015E80000BF0C37BD4680BC704700BF10E000E06C
:1015F80080B582B000AF78607B68002B01D10123F1
:1016080014E07B681B79DBB2002B05D17B680022D4
:101618005A71786802F010FC7B6802221A717B68A4
:1016280000221A617B6801221A71002318460837C4
:10163800BD4680BD80B483B000AF786039607B68F8
:101648005B79012B01D1022340E07B6801225A71AA
:101658007B6802221A717B681B6819683B6803F073
:10166800100301229A407B681B680A431A603B6892
:10167800002B0FD17B681B681B6803F03C033C2BD5
:101688001DD17B681B685A687B681B6842F00102A1
:101698005A6014E07B681B681B6803F470123B688F
:1016A80003F010033C2101FA03F39A4207D17B6847
:1016B8001B685A687B681B6842F002025A607B68A4
:1016C80001221A717B6800225A71002318460C37D0
:1016D800BD4680BC704780B487B000AFF860B96081
:1016E8007A603B6000237B61FB681B687B61BB6899
:1016F800002B05D17A697B68134408337B6104E0C9
:101708007A697B68134414337B617B691A463B68AA
:101718001360002318461C37BD4680BC704780B450
:1017280087B000AFF860B9607A60FB685B79012B1D
:1017380001D102234AE0FB6801225A71FB680222A8
:101748001A71FB681B681B687B617B6803F01003D8
:1017580040F6FE7202FA03F3DB437A6913407B61B9
:10176800BB681A68BB685B6813433B617B6803F01E
:1017780010033A6902FA03F37A6913437B61FB6841
:101788001B687A691A60FB681B6819687B6803F034
:101798001003C02202FA03F3DA43FB681B680A400D
:1017A8001A60FB681B6819687B6803F01003C02285
:1017B80002FA03F3DA43FB681B680A401A60FB6805
:1017C80001221A71FB6800225A71002318461C373F
:1017D800BD4680BC7047000080B584B000AF78601B
:1017E8000023FB737B6893F82130022B05D07B68BC
:1017F80004229A630123FB73D6E07B681B681A688E
:101808007B681B6822F00E021A607B681B681A68E6
:101818007B681B6822F001021A607B681B681A4605
:10182800644B9A4258D97B681B68634A93424FD0ED
:101838007B681B68614A934248D07B681B68604A92
:10184800934240D07B681B685E4A934238D07B68DD
:101858001B685D4A934230D07B681B685B4A9342A1
:1018680028D07B681B68534A934220D07B681B684A
:10187800574A934219D07B681B68564A934212D044
:101888007B681B68544A93420AD07B681B68534A9A
:10189800934202D14FF480531BE04FF4803318E099
:1018A8004FF4807315E0102313E0012311E04FF08B
:1018B80080730EE04FF480130BE04FF4803308E0A0
:1018C8004FF4805305E04FF4807302E0102300E0EA
:1018D8000123434A536057E07B681B68364A9342AA
:1018E8004FD07B681B68354A934248D07B681B6899
:1018F800334A934240D07B681B68324A934238D0BF
:101908007B681B68304A934230D07B681B682F4A3B
:10191800934228D07B681B68264A934220D07B6874
:101928001B682B4A934219D07B681B68294A93424B
:1019380012D07B681B68284A93420AD07B681B68D0
:10194800264A934202D14FF480531BE04FF4803370
:1019580018E04FF4807315E0102313E0012311E021
:101968004FF080730EE04FF480130BE04FF4803398
:1019780008E04FF4805305E04FF4807302E0102331
:1019880000E00123174A53607B68012283F8212075
:101998007B68002283F820207B685B6B002B03D0D8
:1019A8007B685B6B78689847FB7B18461037BD46A9
:1019B80080BD00BF80000240080002401C000240B9
:1019C8003000024044000240580002406C000240CF
:1019D800080402401C04024030040240440402404F
:1019E800000402400000024080B48BB000AF786071
:1019F800396000237B6200233B6279E101227B6A24
:101A080002FA03F3FB613B681B68FA691340BB6188
:101A1800BA69FB699A4240F068813B685B68A04AF2
:101A280093425ED09E4A934275D89E4A934258D0BC
:101A38009C4A93426FD89C4A934252D09A4A934206
:101A480069D89A4A93424CD0984A934263D8984AA4
:101A5800934246D0964A93425DD8122B2AD8122B2D
:101A680059D801A252F823F0EB1A0008C51A000849
:101A7800D71A0008191B00081F1B00081F1B0008A5
:101A88001F1B00081F1B00081F1B00081F1B000846
:101A98001F1B00081F1B00081F1B00081F1B000836
:101AA8001F1B00081F1B00081F1B0008CD1A000879
:101AB800E11A00087F4A934213D02CE03B68DB68A8
:101AC8003B6229E03B68DB6804333B6224E03B6807
:101AD800DB6808333B621FE03B68DB680C333B6222
:101AE8001AE03B689B68002B02D104233B6213E099
:101AF8003B689B68012B05D108233B627B68FA6928
:101B08001A6109E008233B627B68FA695A6103E0BD
:101B180000233B6200E000BFBB69FF2B01D87B6854
:101B280001E07B6804337B61BB69FF2B02D87B6AC9
:101B38009B0002E07B6A083B9B003B617B691A685B
:101B48000F213B6901FA03F3DB431A40396A3B6909
:101B580001FA03F31A437B691A603B685B6803F078
:101B68008053002B00F0C180534B9B69524A43F0CD
:101B780001039361504B9B6903F00103BB60BB6891
:101B88004E4A7B6A9B08023352F82330FB607B6A1B
:101B980003F003039B000F2202FA03F3DB43FA6806
:101BA8001340FB607B68464A93421FD07B68454AD6
:101BB800934219D07B68444A934213D07B68434AC6
:101BC80093420DD07B68424A934207D07B68414AD2
:101BD800934201D105230AE0062308E0042306E026
:101BE800032304E0022302E0012300E000237A6AD1
:101BF80002F0030292009340FA681343FB602F49F6
:101C08007B6A9B080233FA6841F823203B685B68CB
:101C180003F48033002B06D02F4B1A682E49BB697A
:101C280013430B6006E02C4B1A68BB69DB432A4957
:101C380013400B603B685B6803F40033002B06D04D
:101C4800254B5A682449BB6913434B6006E0224B75
:101C58005A68BB69DB43204913404B603B685B68AB
:101C680003F48013002B06D01B4B9A681A49BB69F2
:101C780013438B6006E0184B9A68BB69DB4316492F
:101C880013408B603B685B6803F40013002B25D07E
:101C9800114BDA681049BB691343CB6025E000BFDC
:101CA8000000321000003110000022100000211046
:101CB8000000121000001110001002400000014046
:101CC80000080140000C01400010014000140140D0
:101CD80000180140001C0140000401400B4BDA6869
:101CE800BB69DB4309491340CB607B6A01337B62E4
:101CF8003B681A687B6A22FA03F3002B7FF47EAEF6
:101D080000BF00BF2C37BD4680BC704700040140AF
:101D180080B483B000AF78600B467B8013467B703D
:101D28007B78002B03D07A887B681A6103E07B8874
:101D38001A047B681A6100BF0C37BD4680BC704727
:101D480080B586B000AF78607B68002B01D1012395
:101D58006CE27B681B6803F00103002B00F08780AE
:101D6800924B5B6803F00C03042B0CD08F4B5B6821
:101D780003F00C03082B12D18C4B5B6803F48033FF
:101D8800B3F5803F0BD1894B1B6803F40033002B5C
:101D98006CD07B685B68002B68D1012346E27B68C6
:101DA8005B68B3F5803F06D1804B1B687F4A43F4DC
:101DB800803313602EE07B685B68002B0CD17B4B73
:101DC8001B687A4A23F480331360784B1B68774A80
:101DD80023F4802313601DE07B685B68B3F5A02FB4
:101DE8000CD1724B1B68714A43F4802313606F4B0C
:101DF8001B686E4A43F4803313600BE06B4B1B681F
:101E08006A4A23F480331360684B1B68674A23F4DB
:101E1800802313607B685B68002B13D0FEF76EFE8F
:101E2800386108E0FEF76AFE02463B69D31A642B64
:101E380001D90323FAE15D4B1B6803F40033002B3F
:101E4800F0D014E0FEF75AFE386108E0FEF756FEBF
:101E580002463B69D31A642B01D90323E6E1534BAD
:101E68001B6803F40033002BF0D100E000BF7B684F
:101E78001B6803F00203002B63D04C4B5B6803F034
:101E88000C03002B0BD0494B5B6803F00C03082BA9
:101E98001CD1464B5B6803F48033002B16D1434BAF
:101EA8001B6803F00203002B05D07B681B69012B1C
:101EB80001D00123BAE13D4B1B6823F0F8027B688F
:101EC8005B69DB00394913430B603AE07B681B69A7
:101ED800002B20D0364B01221A60FEF70FFE386126
:101EE80008E0FEF70BFE02463B69D31A022B01D924
:101EF80003239BE12D4B1B6803F00203002BF0D05A
:101F08002A4B1B6823F0F8027B685B69DB002749D2
:101F180013430B6015E0264B00221A60FEF7EEFD16
:101F2800386108E0FEF7EAFD02463B69D31A022B46
:101F380001D903237AE11D4B1B6803F00203002B30
:101F4800F0D17B681B6803F00803002B3AD07B684C
:101F58009B69002B19D0174B01221A60FEF7CEFDA2
:101F6800386108E0FEF7CAFD02463B69D31A022B26
:101F780001D903235AE10D4B5B6A03F00203002BDE
:101F8800F0D0012000F0D8FA1CE00A4B00221A60B9
:101F9800FEF7B4FD38610FE0FEF7B0FD02463B697D
:101FA800D31A022B08D9032340E100BF00100240D6
:101FB80000004242800442429E4B5B6A03F00203E7
:101FC800002BE9D17B681B6803F00403002B00F0A9
:101FD800A6800023FB75974BDB6903F08053002B29
:101FE8000DD1944BDB69934A43F08053D361914BF5
:101FF800DB6903F08053BB60BB680123FB758E4B24
:102008001B6803F48073002B18D18B4B1B688A4A1A
:1020180043F480731360FEF771FD386108E0FEF742
:102028006DFD02463B69D31A642B01D90323FDE0F9
:10203800814B1B6803F48073002BF0D07B68DB684E
:10204800012B06D17B4B1B6A7A4A43F001031362CA
:102058002DE07B68DB68002B0CD1764B1B6A754A38
:1020680023F001031362734B1B6A724A23F00403C3
:1020780013621CE07B68DB68052B0CD16D4B1B6A77
:102088006C4A43F0040313626A4B1B6A694A43F0C3
:10209800010313620BE0674B1B6A664A23F00103D6
:1020A8001362644B1B6A634A23F0040313627B6860
:1020B800DB68002B15D0FEF721FD38610AE0FEF73A
:1020C8001DFD02463B69D31A41F28832934201D979
:1020D8000323ABE0574B1B6A03F00203002BEED03F
:1020E80014E0FEF70BFD38610AE0FEF707FD024633
:1020F8003B69D31A41F28832934201D9032395E010
:102108004C4B1B6A03F00203002BEED1FB7D012B25
:1021180005D1484BDB69474A23F08053D3617B687C
:10212800DB69002B00F08180424B5B6803F00C03F5
:10213800082B61D07B68DB69022B46D13F4B00221C
:102148001A60FEF7DBFC386108E0FEF7D7FC0246B0
:102158003B69D31A022B01D9032367E0354B1B686F
:1021680003F00073002BF0D17B681B6AB3F5803F46
:1021780008D1304B5B6823F400327B689B682D499B
:1021880013434B602B4B5B6823F474127B68196A0A
:102198007B685B6A0B43274913434B60274B01223B
:1021A8001A60FEF7ABFC386108E0FEF7A7FC0246B0
:1021B8003B69D31A022B01D9032337E01D4B1B6857
:1021C80003F00073002BF0D02FE01C4B00221A60A4
:1021D800FEF794FC386108E0FEF790FC02463B6984
:1021E800D31A022B01D9032320E0124B1B6803F0FA
:1021F8000073002BF0D118E07B68DB69012B01D15B
:10220800012313E00B4B5B68FB60FB6803F480322F
:102218007B681B6A9A4206D1FB6803F470127B68DC
:102228005B6A9A4201D0012300E000231846183760
:10223800BD4680BD00100240007000406000424270
:1022480080B584B000AF786039607B68002B01D11D
:102258000123D0E06A4B1B6803F007033A689A42EF
:1022680010D9674B1B6823F0070265493B68134385
:102278000B60634B1B6803F007033A689A4201D06E
:102288000123B8E07B681B6803F00203002B20D011
:102298007B681B6803F00403002B05D0594B5B686F
:1022A800584A43F4E06353607B681B6803F00803F3
:1022B800002B05D0534B5B68524A43F4605353607C
:1022C800504B5B6823F0F0027B689B684D491343D1
:1022D8004B607B681B6803F00103002B40D07B68D0
:1022E8005B68012B07D1474B1B6803F40033002BB5
:1022F80015D101237FE07B685B68022B07D1414B36
:102308001B6803F00073002B09D1012373E03D4BD8
:102318001B6803F00203002B01D101236BE0394B4A
:102328005B6823F003027B685B68364913434B60A4
:10233800FEF7E4FBF8600AE0FEF7E0FB0246FB6804
:10234800D31A41F28832934201D9032353E02D4B2B
:102358005B6803F00C027B685B689B009A42EBD1D8
:10236800274B1B6803F007033A689A4210D2244BA4
:102378001B6823F0070222493B6813430B60204B7C
:102388001B6803F007033A689A4201D0012332E040
:102398007B681B6803F00403002B08D0194B5B68AB
:1023A80023F4E0627B68DB68164913434B607B6863
:1023B8001B6803F00803002B09D0124B5B6823F459
:1023C80060527B681B69DB000E4913434B6000F0C9
:1023D80021F802460B4B5B681B0903F00F030A49FF
:1023E800CB5C22FA03F3094A1360094B1B681846B1
:1023F800FEF742FB002318461037BD4680BD00BFDC
:102408000020024000100240685A0008180000200E
:102418000000002090B48AB000AF2A4B3C1D0FCBBF
:1024280084E80F0040F201233B800023FB61002376
:10243800BB6100237B6200237B6100233B62224B4C
:102448005B68FB61FB6903F00C03042B02D0082BCB
:1024580003D02DE01D4B3B622DE0FB699B0C03F084
:102468000F0307F12802134413F8243C7B61FB692E
:1024780003F48033002B13D0134B5B685B0C03F021
:10248800010307F12802134413F8283CBB617B6958
:102498000E4A02FB03F2BB69B2FBF3F37B6204E072
:1024A8007B690B4A02FB03F37B627B6A3B6202E0B7
:1024B800064B3B6200BF3B6A18462837BD4690BCB6
:1024C800704700BF385A00080010024000127A0016
:1024D80000093D0080B400AF024B1B681846BD469A
:1024E80080BC70471800002080B500AFFFF7F2FFEE
:1024F8000246054B5B681B0A03F007030349CB5CE4
:1025080022FA03F3184680BD00100240785A0008EA
:1025180080B500AFFFF7DEFF0246054B5B68DB0ABC
:1025280003F007030349CB5C22FA03F3184680BD86
:1025380000100240785A000880B485B000AF786077
:102548000A4B1B680A4AA2FB03235B0A7A6802FB50
:1025580003F3FB6000BFFB685A1EFA60002BF9D139
:1025680000BF00BF1437BD4680BC7047180000206C
:10257800D34D621080B586B000AF786000233B6110
:102588000023FB607B681B6803F00103002B7DD0F0
:102598000023FB754F4BDB6903F08053002B0DD1F3
:1025A8004C4BDB694B4A43F08053D361494BDB69A1
:1025B80003F08053BB60BB680123FB75464B1B6867
:1025C80003F48073002B18D1434B1B68424A43F431
:1025D80080731360FEF792FA386108E0FEF78EFA0E
:1025E80002463B69D31A642B01D903236DE03A4BA9
:1025F8001B6803F48073002BF0D0364B1B6A03F47E
:102608004073FB60FB68002B2ED07B685B6803F48B
:102618004073FA689A4227D02E4B1B6A23F4407302
:10262800FB602E4B01221A602C4B00221A60294AAB
:10263800FB681362FB6803F00103002B14D0FEF75C
:102648005DFA38610AE0FEF759FA02463B69D31A87
:1026580041F28832934201D9032336E01D4B1B6AAD
:1026680003F00203002BEED01A4B1B6A23F44072CE
:102678007B685B68174913430B62FB7D012B05D10F
:10268800144BDB69134A23F08053D3617B681B68C2
:1026980003F00203002B08D00E4B5B6823F4404282
:1026A8007B689B680B4913434B607B681B6803F08E
:1026B8001003002B08D0074B5B6823F480027B686B
:1026C8005B69044913434B60002318461837BD461D
:1026D80080BD00BF0010024000700040400442422C
:1026E80090B58DB000AF78606B4B07F10C040FCB41
:1026F80084E80F0040F201233B8100237B62002322
:10270800FB6200233B620023FB610023BB627B6802
:10271800013B0F2B00F2B68001A252F823F000BF54
:102728000B280008712800088D280008FB270008DE
:102738008D2800088D2800088D2800080328000827
:102748008D2800088D2800088D2800088D2800088D
:102758008D2800088D2800088D28000869270008A2
:102768004E4B5B68FB614D4B1B6803F08073002B7D
:1027780000F08A80FB699B0C03F00F0307F130021D
:10278800134413F8243C3B62FB6903F48033002BA9
:1027980018D0424B5B685B0C03F0010307F1300271
:1027A800134413F8283C7B62FB6903F48033002B45
:1027B8000DD03B4A7B6AB2FBF3F23B6A02FB03F3A0
:1027C800FB6204E03B6A374A02FB03F3FB62334BCC
:1027D8005B6803F48003B3F5800F02D1FB6ABB6228
:1027E80052E0FB6A5B00304AA2FB03235B08BB6232
:1027F8004AE0FFF70FFEB86249E0FFF70BFEB86248
:1028080045E0264B1B6AFB61FB6903F44073B3F593
:10281800807F08D1FB6903F00203002B03D04FF43B
:102828000043BB621FE0FB6903F44073B3F5007F0C
:1028380009D11A4B5B6A03F00203002B03D049F657
:102848004043BB620FE0FB6903F44073B3F5407F7C
:102858001CD1124B1B6803F40033002B16D04FF227
:102868002443BB6212E011E0FFF752FE02460B4B15
:102878005B689B0B03F0030301335B00B2FBF3F3CC
:10288800BB6204E000BF02E000BF00E000BFBB6A1B
:1028980018463437BD4690BD485A0008001002401B
:1028A80000127A0000093D00ABAAAAAA80B582B03E
:1028B80000AF78607B68002B01D1012353E07B686F
:1028C80000229A627B6893F85130DBB2002B06D164
:1028D8007B68002283F85020786801F069FE7B68E5
:1028E800022283F851207B681B681A687B681B6882
:1028F80022F040021A607B685A687B689B681A431A
:102908007B68DB681A437B681B691A437B685B69D1
:102918001A437B689B6903F400731A437B68DB697D
:102928001A437B681B6A42EA03017B689A6A7B68E0
:102938001B680A431A607B689B691A0C7B681B68D2
:1029480002F004025A607B681B68DA697B681B68BE
:1029580022F40062DA617B6800225A657B680122F2
:1029680083F85120002318460837BD4680BD80B53E
:1029780088B000AFF860B9603B601346FB80002365
:10298800FB77FB6893F85030012B01D102231EE13D
:10299800FB68012283F85020FEF7B0F8B861FB8885
:1029A800FB82FB6893F85130DBB2012B02D0022383
:1029B800FB7703E1BB68002B02D0FB88002B02D118
:1029C8000123FB77FAE0FB68032283F85120FB68B8
:1029D80000225A65FB68BA681A63FB68FA889A8607
:1029E800FB68FA88DA86FB6800229A63FB68002293
:1029F8009A87FB680022DA87FB6800225A64FB6822
:102A080000221A64FB689B68B3F5004F07D1FB6886
:102A18001B681A68FB681B6842F480421A60FB68EE
:102A28001B681B6803F04003402B07D0FB681B683A
:102A38001A68FB681B6842F040021A60FB68DB6892
:102A4800B3F5006F4BD1FB685B68002B02D0FB8AA3
:102A5800012B3ED1FB681B6B1A88FB681B68DA6088
:102A6800FB681B6B9A1CFB681A63FB68DB8E9BB2C6
:102A7800013B9AB2FB68DA862BE0FB681B689B680F
:102A880003F00203022B12D1FB681B6B1A88FB6848
:102A98001B68DA60FB681B6B9A1CFB681A63FB688F
:102AA800DB8E9BB2013B9AB2FB68DA8611E0FEF737
:102AB80025F80246BB69D31A3A689A4203D83B689C
:102AC800B3F1FF3F02D13B68002B02D10323FB7710
:102AD80074E0FB68DB8E9BB2002BCED14CE0FB6828
:102AE8005B68002B02D0FB8A012B40D1FB681A6B74
:102AF800FB681B680C3312781A70FB681B6B5A1C36
:102B0800FB681A63FB68DB8E9BB2013B9AB2FB68D9
:102B1800DA862CE0FB681B689B6803F00203022B33
:102B280013D1FB681A6BFB681B680C3312781A7098
:102B3800FB681B6B5A1CFB681A63FB68DB8E9BB235
:102B4800013B9AB2FB68DA8611E0FDF7D7FF02462F
:102B5800BB69D31A3A689A4203D83B68B3F1FF3F7E
:102B680002D13B68002B02D10323FB7726E0FB68E8
:102B7800DB8E9BB2002BCDD1BA693968F86800F0BA
:102B880094F80346002B02D0FB6820225A65FB68A4
:102B98009B68002B0AD100233B61FB681B68DB683C
:102BA8003B61FB681B689B683B613B69FB685B6D2D
:102BB800002B02D00123FB7700E000BFFB68012255
:102BC80083F85120FB68002283F85020FB7F1846C9
:102BD8002037BD4680BD80B584B000AFF860B960CD
:102BE8003B601346FB714CE03B68B3F1FF3F48D0B4
:102BF800FDF784FF0246BB69D31A3A689A4202D9A4
:102C08003B68002B3DD1FB681B685A68FB681B6852
:102C180022F0E0025A60FB685B68B3F5827F11D14D
:102C2800FB689B68B3F5004F04D0FB689B68B3F55D
:102C3800806F07D1FB681B681A68FB681B6822F065
:102C480040021A60FB689B6AB3F5005F0FD1FB680E
:102C58001B681A68FB681B6822F400521A60FB683C
:102C68001B681A68FB681B6842F400521A60FB680C
:102C7800012283F85120FB68002283F850200323A7
:102C88000FE0FB681B689A68BB681340BA689A42F1
:102C98000CBF01230023DBB21A46FB799A42A3D169
:102CA800002318461037BD4680BD80B586B002AFF8
:102CB800F860B9607A607B680093BB680022802165
:102CC800F868FFF788FF0346002B07D0FB685B6DA9
:102CD80043F02002FB685A65032300E000231846EE
:102CE8001037BD4680BD80B582B000AF78607B6884
:102CF800002B01D101231DE07B6893F83D30DBB246
:102D0800002B06D17B68002283F83C20786801F00C
:102D180009FE7B68022283F83D207B681A687B687D
:102D280004331946104600F03FFA7B68012283F805
:102D38003D20002318460837BD4680BD80B485B0C5
:102D480000AF78607B68022283F83D207B681B68AF
:102D58009B6803F00703FB60FB68062B07D07B68C2
:102D68001B681A687B681B6842F001021A607B685E
:102D7800012283F83D20002318461437BD4680BC45
:102D8800704780B485B000AF78607B681B68DA68EC
:102D98007B681B6842F00102DA607B681B689B68ED
:102DA80003F00703FB60FB68062B07D07B681B68F2
:102DB8001A687B681B6842F001021A6000231846F3
:102DC8001437BD4680BC704780B582B000AF7860CC
:102DD8007B681B681B6903F00203022B22D17B6806
:102DE8001B68DB6803F00203022B1BD17B681B689E
:102DF8006FF002021A617B6801221A777B681B68F0
:102E08009B6903F00303002B03D0786800F0B1F945
:102E180005E0786800F0A4F9786800F0B3F97B68F9
:102E280000221A777B681B681B6903F00403042BD4
:102E380022D17B681B68DB6803F00403042B1BD1D9
:102E48007B681B686FF004021A617B6802221A779C
:102E58007B681B689B6903F44073002B03D0786878
:102E680000F087F905E0786800F07AF9786800F0F2
:102E780089F97B6800221A777B681B681B6903F055
:102E88000803082B22D17B681B68DB6803F0080362
:102E9800082B1BD17B681B686FF008021A617B68DE
:102EA80004221A777B681B68DB6903F00303002B95
:102EB80003D0786800F05DF905E0786800F050F913
:102EC800786800F05FF97B6800221A777B681B68D6
:102ED8001B6903F01003102B22D17B681B68DB6889
:102EE80003F01003102B1BD17B681B686FF01002D6
:102EF8001A617B6808221A777B681B68DB6903F410
:102F08004073002B03D0786800F033F905E0786847
:102F180000F026F9786800F035F97B6800221A7706
:102F28007B681B681B6903F00103012B0ED17B68CA
:102F38001B68DB6803F00103012B07D17B681B6862
:102F48006FF001021A61786801F012FD7B681B6856
:102F58001B6903F08003802B0ED17B681B68DB683C
:102F680003F08003802B07D17B681B686FF0800219
:102F78001A61786800F075FA7B681B681B6903F0B2
:102F88004003402B0ED17B681B68DB6803F04003CD
:102F9800402B07D17B681B686FF040021A61786884
:102FA80000F0F9F87B681B681B6903F02003202BED
:102FB8000ED17B681B68DB6803F02003202B07D148
:102FC8007B681B686FF020021A61786800F040FA8D
:102FD80000BF0837BD4680BD80B584B000AF7860BB
:102FE80039607B6893F83C30012B01D10223B3E0B0
:102FF8007B68012283F83C207B68022283F83D200D
:103008007B681B689B68FB60FB6823F07703FB60A9
:10301800FB6823F47F43FB607B681B68FA689A604F
:103028003B681B68B3F5005F3ED0B3F5005F00F264
:103038008780B3F5805F00F08580B3F5805F7FD827
:10304800702B1AD0702B7BD8602B50D0602B77D880
:10305800502B3CD0502B73D8402B58D0402B6FD8D6
:10306800302B64D0302B6BD8202B60D0202B67D826
:10307800002B5CD0102B5AD062E07B6818683B6844
:1030880099683B685A683B68DB6800F07EF97B68A2
:103098001B689B68FB60FB6843F07703FB607B68F9
:1030A8001B68FA689A604EE07B6818683B68996804
:1030B8003B685A683B68DB6800F067F97B681B6807
:1030C8009A687B681B6842F480429A603BE07B68A0
:1030D80018683B6859683B68DB681A4600F0DEF8F8
:1030E8007B681B685021184600F035F92BE07B6897
:1030F80018683B6859683B68DB681A4600F0FCF8BA
:103108007B681B686021184600F025F91BE07B6886
:1031180018683B6859683B68DB681A4600F0BEF8D7
:103128007B681B684021184600F015F90BE07B68A6
:103138001A683B681B681946104600F00CF902E053
:1031480000BF00E000BF7B68012283F83D207B6858
:10315800002283F83C20002318461037BD4680BD66
:1031680080B483B000AF786000BF0C37BD4680BC28
:10317800704780B483B000AF786000BF0C37BD469D
:1031880080BC704780B483B000AF786000BF0C3754
:10319800BD4680BC704780B483B000AF786000BF84
:1031A8000C37BD4680BC704780B485B000AF7860EE
:1031B80039607B681B68FB607B68334A934213D095
:1031C8007B68324A93420FD07B68B3F1804F0BD0B3
:1031D8007B682F4A934207D07B682E4A934203D0DC
:1031E8007B682D4A934208D1FB6823F07003FB608B
:1031F8003B685B68FA681343FB607B68224A93422A
:1032080013D07B68214A93420FD07B68B3F1804F7B
:103218000BD07B681E4A934207D07B681D4A9342B5
:1032280003D07B681C4A934208D1FB6823F440739F
:10323800FB603B68DB68FA681343FB60FB6823F0BC
:1032480080023B685B691343FB607B68FA681A601D
:103258003B689A687B68DA623B681A687B689A629E
:103268007B68094A934203D07B68084A934203D19A
:103278003B681A697B681A637B6801225A6100BF40
:103288001437BD4680BC7047002C01400034014013
:103298000004004000080040000C004080B487B0E3
:1032A80000AFF860B9607A60FB681B6A7B61FB68F5
:1032B8001B6A23F00102FB681A62FB689B693B6189
:1032C8003B6923F0F0033B617B681B013A691343B8
:1032D8003B617B6923F00A037B617A69BB6813430E
:1032E8007B61FB683A699A61FB687A691A6200BF78
:1032F8001C37BD4680BC704780B487B000AFF8600B
:10330800B9607A60FB681B6A23F01002FB681A62D6
:10331800FB689B697B61FB681B6A3B617B6923F4E3
:1033280070437B617B681B037A6913437B613B694C
:1033380023F0A0033B61BB681B013A6913433B615F
:10334800FB687A699A61FB683A691A6200BF1C37A0
:10335800BD4680BC704780B485B000AF78603960E6
:103368007B689B68FB60FB6823F07003FB603A682E
:10337800FB68134343F00703FB607B68FA689A60B5
:1033880000BF1437BD4680BC704780B487B000AF1B
:10339800F860B9607A603B60FB689B687B617B6919
:1033A80023F47F437B613B681A027B681A43BB683E
:1033B80013437A6913437B61FB687A699A6000BF9B
:1033C8001C37BD4680BC704780B485B000AF7860BC
:1033D80039607B6893F83C30012B01D1022332E03D
:1033E8007B68012283F83C207B68022283F83D2019
:1033F8007B681B685B68FB607B681B689B68BB60BD
:10340800FB6823F07003FB603B681B68FA68134392
:10341800FB60BB6823F08003BB603B685B68BA68ED
:103428001343BB607B681B68FA685A607B681B683B
:10343800BA689A607B68012283F83D207B68002285
:1034480083F83C20002318461437BD4680BC7047DB
:1034580080B483B000AF786000BF0C37BD4680BC35
:10346800704780B483B000AF786000BF0C37BD46AA
:1034780080BC704780B582B000AF78607B68002B55
:1034880001D101233FE07B6893F83930DBB2002B90
:1034980006D17B68002283F83820786801F0B0FAFA
:1034A8007B68242283F839207B681B68DA687B688C
:1034B8001B6822F40052DA60786800F03FFB7B68F2
:1034C8001B681A697B681B6822F490421A617B6842
:1034D8001B685A697B681B6822F02A025A617B685C
:1034E8001B68DA687B681B6842F40052DA607B6804
:1034F8000022DA637B68202283F839207B68202247
:1035080083F83A20002318460837BD4680BD80B5A9
:1035180088B002AFF860B9603B601346FB800023B7
:103528007B61FB6893F83930DBB2202B40F0838055
:10353800BB68002B02D0FB88002B01D101237BE064
:10354800FB6893F83830012B01D1022374E0FB6843
:10355800012283F83820FB680022DA63FB68212205
:1035680083F83920FDF7CAFA7861FB68FA889A84EB
:10357800FB68FA88DA8442E0FB68DB8C9BB2013B8B
:103588009AB2FB68DA84FB689B68B3F5805F22D146
:103598003B6800937B6900228021F86800F065F998
:1035A8000346002B01D0032346E0BB683B613B691F
:1035B8001B881A46FB681B68C2F308025A60FB683E
:1035C8001B69002B03D1BB680233BB6017E0BB68E3
:1035D8000133BB6013E03B6800937B6900228021C4
:1035E800F86800F042F90346002B01D0032323E0DA
:1035F800BB685A1CBA601A78FB681B685A60FB687B
:10360800DB8C9BB2002BB7D13B6800937B6900220F
:103618004021F86800F029F90346002B01D0032364
:103628000AE0FB68202283F83920FB68002283F82F
:103638003820002300E0022318461837BD4680BD15
:1036480080B588B000AF78607B681B681B68FB6139
:103658007B681B68DB68BB617B681B685B697B6197
:1036680000233B610023FB60FB6903F00F033B6110
:103678003B69002B0DD1FB6903F02003002B08D018
:10368800BB6903F02003002B03D0786800F0D5F95C
:10369800CBE03B69002B00F0AB807B6903F00103B2
:1036A800002B05D1BB6903F49073002B00F0A080B8
:1036B800FB6903F00103002B0AD0BB6903F4807394
:1036C800002B05D07B68DB6B43F001027B68DA6373
:1036D800FB6903F00403002B0AD07B6903F00103A4
:1036E800002B05D07B68DB6B43F002027B68DA6352
:1036F800FB6903F00203002B0AD07B6903F0010386
:10370800002B05D07B68DB6B43F004027B68DA632F
:10371800FB6903F00803002B0AD07B6903F001035F
:10372800002B05D07B68DB6B43F008027B68DA630B
:103738007B68DB6B002B77D0FB6903F02003002B41
:1037480007D0BB6903F02003002B02D0786800F093
:1037580074F97B681B685B6903F04003002B14BF96
:1037680001230023DBB2FB607B68DB6B03F00803FB
:10377800002B02D1FB68002B31D0786800F0BFF82D
:103788007B681B685B6903F04003002B23D07B68D0
:103798001B685A697B681B6822F040025A617B6883
:1037A8005B6B002B13D07B685B6B214A5A637B6889
:1037B8005B6B1846FEF710F80346002B16D07B68A3
:1037C8005B6B5B6B7A68526B104698470EE07868C3
:1037D80000F042F80AE0786800F03EF806E0786801
:1037E80000F03AF87B680022DA631DE000BF1BE0B6
:1037F800FB6903F08003002B08D0BB6903F080034A
:10380800002B03D0786800F0ABF80EE0FB6903F0FA
:103818004003002B09D0BB6903F04003002B04D000
:10382800786800F0F2F800E000BF2037BD4680BDA0
:103838004139000880B483B000AF786000BF0C370E
:10384800BD4680BC704780B483B000AF786000BFCD
:103858000C37BD4680BC704780B483B000AF786039
:1038680000BF0C37BD4680BC704780B584B000AF40
:10387800F860B9603B601346FB712CE0BB69B3F19B
:10388800FF3F28D0BB69002B07D0FDF737F9024668
:103898003B68D31ABA699A421DD2FB681B68DA687A
:1038A800FB681B6822F4D072DA60FB681B685A69EF
:1038B800FB681B6822F001025A61FB68202283F82A
:1038C8003920FB68202283F83A20FB68002283F81D
:1038D800382003230FE0FB681B681A68BB68134095
:1038E800BA689A420CBF01230023DBB21A46FB795F
:1038F8009A42C3D0002318461037BD4680BD80B415
:1039080083B000AF78607B681B68DA687B681B68E7
:1039180022F49072DA607B681B685A697B681B68BE
:1039280022F001025A617B68202283F83A2000BF06
:103938000C37BD4680BC704780B584B000AF786056
:103948007B685B6AFB60FB680022DA85FB68002203
:10395800DA84F868FFF780FF00BF1037BD4680BDE6
:1039680080B485B000AF78607B6893F83930DBB2FB
:10397800212B44D17B689B68B3F5805F1AD17B68A3
:103988001B6AFB60FB681B881A467B681B68C2F3CE
:1039980008025A607B681B69002B05D17B681B6A8B
:1039A8009A1C7B681A620EE07B681B6A5A1C7B684B
:1039B8001A6208E07B681B6A591C7A6811621A78D7
:1039C8007B681B685A607B68DB8C9BB2013B9BB2AF
:1039D8007A681946D184002B0FD17B681B68DA6896
:1039E8007B681B6822F08002DA607B681B68DA68F3
:1039F8007B681B6842F04002DA60002300E0022383
:103A080018461437BD4680BC704780B582B000AFF9
:103A180078607B681B68DA687B681B6822F0400264
:103A2800DA607B68202283F839207868FFF702FF84
:103A3800002318460837BD4680BD80B584B000AF66
:103A480078607B6893F83A30DBB2222B71D17B68BF
:103A58009B68B3F5805F23D17B689B6AFB607B68BA
:103A68001B69002B0ED17B681B685B689BB2C3F394
:103A780008039AB2FB681A807B689B6A9A1C7B6869
:103A88009A6229E07B681B685B689BB2DBB29AB2DA
:103A9800FB681A807B689B6A5A1C7B689A621BE0E9
:103AA8007B681B69002B0AD17B681B6858687B6898
:103AB8009B6A591C7A689162C2B21A700CE07B68E2
:103AC8001B685B68DAB27B689B6A581C79688862F5
:103AD80002F07F02D2B21A707B68DB8D9BB2013B89
:103AE8009BB27A681946D185002B20D17B681B6868
:103AF800DA687B681B6822F02002DA607B681B6842
:103B0800DA687B681B6822F48072DA607B681B685D
:103B18005A697B681B6822F001025A617B6820227F
:103B280083F83A207868FFF78EFE002302E000232E
:103B380000E0022318461037BD4680BD80B584B02A
:103B480000AF78607B681B681B6923F440517B6871
:103B5800DA687B681B680A431A617B689A687B6825
:103B68001B691A437B685B691343FB607B681B68AE
:103B7800DB6823F4B05323F00C037A681268F96801
:103B88000B43D3607B681B685B6923F440717B68D7
:103B98009A697B681B680A435A617B681B68524AAA
:103BA80093424ED1FEF7B4FCB860BA6813469B0046
:103BB80013449A001A447B685B689B00B2FBF3F3DA
:103BC8004A4AA2FB03235B091901BA6813469B0002
:103BD80013449A001A447B685B689B00B2FBF3F2BB
:103BE800424BA3FB02035B09642000FB03F3D31AD7
:103BF8001B0132333D4AA2FB03235B0903F0F003A8
:103C08001944BA6813469B0013449A001A447B6807
:103C18005B689B00B2FBF3F2344BA3FB02035B0926
:103C2800642000FB03F3D31A1B0132332F4AA2FB93
:103C380003235B0903F00F027B681B680A449A6040
:103C48004DE0FEF751FCB860BA6813469B00134478
:103C58009A001A447B685B689B00B2FBF3F3234A23
:103C6800A2FB03235B091901BA6813469B0013449E
:103C78009A001A447B685B689B00B2FBF3F21B4B0B
:103C8800A3FB02035B09642000FB03F3D31A1B01A7
:103C98003233164AA2FB03235B0903F0F0031944ED
:103CA800BA6813469B0013449A001A447B685B6801
:103CB8009B00B2FBF3F20D4BA3FB02035B096420EC
:103CC80000FB03F3D31A1B013233084AA2FB032378
:103CD8005B0903F00F027B681B680A449A6000BF07
:103CE8001037BD4680BD00BF003801401F85EB512D
:103CF80080B584B000AF3B1D00221A605A609A60FC
:103D0800184B194A1A60174B00229A60154B00226B
:103D18001A73144B00221A75124B4FF46022DA61A1
:103D2800104B00225A600F4B01221A610D48FCF714
:103D380013FF0346002B01D000F04FFB04237B60E8
:103D48000123BB600723FB603B1D19460548FDF7AF
:103D5800A1F90346002B01D000F03FFB00BF10374C
:103D6800BD4680BDA00000200024014080B588B079
:103D780000AF786007F1100300221A605A609A6059
:103D8800DA607B681B68144A934221D1134B9B6904
:103D9800124A43F400739361104B9B6903F4007358
:103DA800FB60FB680D4B9B690C4A43F0040393616D
:103DB8000A4B9B6903F00403BB60BB6810233B619B
:103DC80003237B6107F1100319460548FDF70CFE34
:103DD80000BF2037BD4680BD0024014000100240CE
:103DE8000008014080B582B000AF3B4600221A604F
:103DF8005A600F4B0F4A1A600D48FDF7F9FB03464E
:103E0800002B01D000F0E9FA00233B6000237B601F
:103E18003B46102219460648FDF781FC0346002B55
:103E280001D000F0DAFA00BF0837BD4680BD00BFF8
:103E3800D00000200074004080B588B000AF7860E2
:103E480007F1100300221A605A609A60DA607B68F2
:103E58001B68144A934221D1134BDB69124A43F081
:103E68000053D361104BDB6903F00053FB60FB6820
:103E78000D4B9B690C4A43F0040393610A4B9B6901
:103E880003F00403BB60BB6820233B6103237B6111
:103E980007F1100319460548FDF7A6FD00BF2037B6
:103EA800BD4680BD0074004000100240000801407B
:103EB80080B582B000AF0346FB710420FDF77CFBA0
:103EC800FB79034A136000BF0837BD4680BD00BFB9
:103ED800E400002080B489B000AF78600023BB61A3
:103EE800194B5B687B61194B1A687B6802FB03F30B
:103EF8003B61154B9B68FB61134B9B68FB60FA6841
:103F0800FB699A42F8D0FA68FB699A4206D2FA69C4
:103F1800FB68D31ABA691344BB6107E07A69FB6886
:103F2800D21AFB691344BA691344BB61FB68FB618D
:103F3800BA693B699A4200D2DEE700BF00BF243766
:103F4800BD4680BC704700BF10E000E0E4000020E0
:103F580080B586B000AF07F1080300221A605A60E6
:103F68009A60DA60234B9B69224A43F00403936109
:103F7800204B9B6903F004037B607B681D4B9B69A6
:103F88001C4A43F0080393611A4B9B6903F008032A
:103F98003B603B68002201211748FDF7B9FE01226A
:103FA8000E211548FDF7B4FE012280211348FDF7C4
:103FB800AFFE0F23BB600123FB6000233B6102239C
:103FC8007B6107F1080319460B48FDF70DFD8023B7
:103FD800BB600123FB6000233B6102237B6107F187
:103FE800080319460548FDF7FFFC00BF1837BD4612
:103FF80080BD00BF0010024000080140000C0140D5
:1040080080B584B000AF0346FB710023FB72002328
:10401800FB6031E0FB7903F00103FB72FB7A002BB4
:1040280012D0012201211848FDF772FE4FF41670D4
:10403800FFF750FF002201211348FDF769FE40F207
:104048009560FFF747FF11E0012201210E48FDF7B7
:104058005FFE4FF41670FFF73DFF002201210A486A
:10406800FDF756FE4FF40C70FFF734FFFB795B0841
:10407800FB71FB680133FB60FB68072BCADD00BFDF
:1040880000BF1037BD4680BD0008014080B582B032
:1040980000AF03460A46FB711346BB71012201219A
:1040A8001A48FDF735FE42F22830FFF713FF0022C9
:1040B80001211648FDF72CFE41F29410FFF70AFF84
:1040C800FB791846FFF79CFFFB79DB43DBB2184608
:1040D800FFF796FFBB791846FFF792FFBB79DB43E2
:1040E800DBB21846FFF78CFF012201210748FDF7D4
:1040F8000FFE4FF44870FFF7EDFE00220121034840
:10410800FDF706FE00BF0837BD4680BD0008014028
:1041180080B582B000AF7860391D4FF6FF73012279
:104128000348FFF7F4F97B6818460837BD4680BD99
:104138009801002080B586B000AFF860B9607A6059
:1041480000237B6109E0BB685A1CBA601B781846DB
:10415800FFF7DEFF7B6901337B617A697B689A42EE
:10416800F1DB7B6818461837BD4680BD00000000AB
:1041780080B500AFFCF76AFC00F0D2F84820FFF7E2
:1041880097FEFFF7E5FEFFF7B3FDFFF72BFE00F004
:10419800D7F900F00BFC00F077FB40F60C03002287
:1041A80010215548FDF797FA10215348FDF742FAB8
:1041B8005248FEF7C3FD5148FEF7E3FD5048FCF7AF
:1041C800B5FD0A214E48FCF75FFE4D48FCF756FF47
:1041D80003461A464B4B1A604A4B1B681846FCF7B5
:1041E80071F943A3D3E90023FCF7D6F902460B463D
:1041F800104619464FF00002434BFCF7F7FA024607
:104208000B464249C1E900233E4B1B68194640480A
:1042180000F0A2FC3D4BD3E900233E4800F09CFC93
:10422800384B1B681846FCF74DF94FF00002364B27
:10423800FCF7DCFA02460B46104619462CA3D3E9D4
:104248000023FCF7A9F902460B463049C1E90023CF
:104258002E4BD3E900014FF000022F4BFCF79CF9DD
:1042680002460B461046194602460B46FBF7DEFF90
:1042780002460B462549C1E90023244BD3E9002314
:1042880010461946FCF7C2FB0346DBB21846FCF79A
:1042980009F902460B461D49C1E900231B4BD3E926
:1042A80000231C4800F058FC184BD3E900231046A3
:1042B8001946FCF783FB0346184600F095F8174BA0
:1042C8001B78002B3FF47AAF144B00221A700F4B67
:1042D800D3E9002310461946FCF798FB0346DBB2E6
:1042E80019460020FFF7D2FE68E700BFAFF3008051
:1042F8006666666666660A40D000002054010020A3
:10430800A0000020E80000200000B040F0000020DD
:10431800585A0008605A000800005940050000205B
:1043280080B596B000AF07F1300328220021184667
:1043380000F00AFC07F11C0300221A605A609A6018
:10434800DA601A613B1D00221A605A609A60DA60CE
:104358001A615A6101233B634FF480337B63002366
:10436800BB6301233B640223FB644FF480333B654A
:104378004FF4E0137B6507F130031846FDF7E0FCC6
:104388000346002B01D000F028F80F23FB6102231D
:104398003B6200237B624FF48063BB620023FB62B5
:1043A80007F11C0302211846FDF74AFF0346002BBC
:1043B80001D000F012F802237B604FF40043FB6049
:1043C8003B1D1846FEF7D6F80346002B01D000F037
:1043D80004F800BF5837BD4680BD80B400AF00BFA9
:1043E800BD4680BC7047000080B584B000AF7860DF
:1043F8000023FB737B684C4A82FB03125211DB17C4
:10440800D31ADBB2BB73002280214848FDF780FC39
:10441800BB7B1A46464BD118642301224548FEF758
:10442800A6FA012280214148FDF772FC00220221F0
:104438004148FDF76DFC0520FCF76AFB01220221CB
:104448003D48FDF765FC7A68374B83FB0213591129
:10445800D317CB1A642101FB03F3D31A374A82FB23
:1044680003129210DB17D31A314AD35C63F07F032F
:10447800DBB2BB73002280212C48FDF749FC07F111
:104488000E01642301222B48FEF771FA01228021D4
:104498002648FDF73DFC002204212748FDF738FC9B
:1044A8000520FCF735FB012204212348FDF730FCE9
:1044B8007B681D4A82FB03125111DA178A1A64219C
:1044C80001FB02F29A1A1D4B83FB02139910D317B2
:1044D800C91A0B469B000B445B00D11ACBB2BB73C5
:1044E800002280211148FDF713FCBB7B1A46104BB4
:1044F800D118642301220F48FEF739FA01228021DE
:104508000A48FDF705FC002208210B48FDF700FCCE
:104518000520FCF7FDFA012208210748FDF7F8FB02
:1045280000BF1037BD4680BD1F85EB51000C014010
:1045380008000020F8000020000801406766666651
:1045480080B500AF184B194A1A60174B4FF48272A6
:104558005A60154B4FF400429A60134B0022DA6000
:10456800114B00221A61104B00225A610E4B4FF476
:1045780000729A610C4B3022DA610B4B00221A62EE
:10458800094B00225A62084B00229A62064B0A2203
:10459800DA620548FEF78AF90346002B01D0FFF7D7
:1045A8001CFF00BF80BD00BFF800002000300140A4
:1045B80080B58AB000AF786007F1140300221A6052
:1045C8005A609A60DA607B681B681C4A934231D152
:1045D8001B4B9B691A4A43F480539361184B9B69A0
:1045E80003F480533B613B69154B9B69144A43F0C4
:1045F80008039361124B9B6903F00803FB60FB6897
:1046080028237B610223BB6103233B6207F1140368
:1046180019460C48FDF7E8F90B4B5B687B627B6A2F
:1046280043F0E0637B627B6A43F001037B62064AE6
:104638007B6A536000BF2837BD4680BD003001400B
:1046480000100240000C01400000014080B485B019
:1046580000AF154B9B69144A43F001039361124B59
:104668009B6903F00103BB60BB680F4BDB690E4A13
:1046780043F08053D3610C4BDB6903F080537B60BC
:104688007B680A4B5B68FB60FB6823F0E063FB60B8
:10469800FB6843F00073FB60044AFB68536000BF8B
:1046A8001437BD4680BC704700100240000001402E
:1046B80080B400AF00BFBD4680BC704780B400AF77
:1046C800FEE780B400AFFEE780B400AFFEE780B439
:1046D80000AFFEE780B400AF00BFBD4680BC7047A6
:1046E80080B400AF00BFBD4680BC704780B400AF47
:1046F80000BFBD4680BC704780B500AFFCF7ECF941
:1047080000BF80BD80B500AF0248FEF75DFB00BF6B
:1047180080BD00BF5401002080B500AF0248FEF7FD
:104728008FFF00BF80BD00BF9801002080B586B014
:1047380000AFF860B9607A6000237B610AE0AFF3EC
:1047480000800146BB685A1CBA60CAB21A707B69FD
:1047580001337B617A697B689A42F0DB7B68184693
:104768001837BD4680BD000080B584B000AF7860C2
:10477800114B1B68002B02D10F4B104A1A600E4BCD
:104788001B68FB600C4B1A687B6813446A469342AB
:1047980007D900F0AFF903460C221A604FF0FF3337
:1047A80006E0054B1A687B681344034A1360FB68EC
:1047B80018461037BD4680BD50010020F00100208A
:1047C80080B483B000AF78604FF0FF3318460C37E1
:1047D800BD4680BC704780B483B000AF7860396054
:1047E8003B684FF400525A60002318460C37BD4608
:1047F80080BC704780B483B000AF7860012318464E
:104808000C37BD4680BC704780B485B000AFF860F7
:10481800B9607A60002318461437BD4680BC7047DB
:1048280080B400AF154B1B68144A43F001031360B2
:10483800124B5A681149124B13404B600F4B1B68BF
:104848000E4A23F0847323F4803313600B4B1B68E8
:104858000A4A23F480231360084B5B68074A23F451
:10486800FE035360054B4FF41F029A60054B4FF04F
:1048780000629A6000BFBD4680BC704700100240CD
:104888000000FFF800ED00E080B586B000AF07F14A
:10489800080300221A605A609A60DA603B460022D8
:1048A8001A605A601D4B1E4A1A601C4B47225A60F8
:1048B8001A4B00229A60194B40F2E732DA60174B24
:1048C80000221A61154B00229A611448FEF70BFA70
:1048D8000346002B01D0FFF780FD4FF48053BB60E7
:1048E80007F1080319460D48FEF776FB0346002B2F
:1048F80001D0FFF772FD00233B6000237B603B463D
:1049080019460648FEF760FD0346002B01D0FFF765
:1049180064FD00BF1837BD4680BD00BF54010020AC
:104928000004004080B584B000AF78607B681B68E5
:104938000D4A934213D10D4BDB690C4A43F0020335
:10494800D3610A4BDB6903F00203FB60FB680022BA
:1049580000211D20FCF7F9FD1D20FCF712FE00BF09
:104968001037BD4680BD00BF000400400010024063
:1049780080B483B000AF78600A4B1B680133094AE2
:104988001360084B1B68B3F57A7F05D1064B0122EB
:104998001A70044B00221A6000BF0C37BD4680BC59
:1049A800704700BF940100200500002080B500AFCB
:1049B800114B124A1A60104B4FF4E1325A600E4BF9
:1049C80000229A600C4B0022DA600B4B00221A611D
:1049D800094B0C225A61084B00229A61064B0022AF
:1049E800DA610548FEF746FD0346002B01D0FFF7C4
:1049F800F4FC00BF80BD00BF9801002000380140D2
:104A080080B588B000AF786007F1100300221A6003
:104A18005A609A60DA607B681B68204A934239D1F1
:104A28001F4B9B691E4A43F4804393611C4B9B694F
:104A380003F48043FB60FB68194B9B69184A43F0F9
:104A480004039361164B9B6903F00403BB60BB68C6
:104A58004FF400733B6102237B610323FB6107F181
:104A6800100319460F48FCF7BFFF4FF480633B6102
:104A780000237B610023BB6107F110031946094835
:104A8800FCF7B2FF002200212520FCF75EFD25205F
:104A9800FCF777FD00BF2037BD4680BD00380140D8
:104AA8000010024000080140002103E00B4B5B5856
:104AB800435004310A480B4B42189A42F6D30A4A2B
:104AC80002E0002342F8043B084B9A42F9D3FFF76F
:104AD800A7FE00F015F8FFF74BFB7047205B0008B6
:104AE800000000208000002080000020F00100204D
:104AF800FEE70000014B1868704700BF1C0000204B
:104B080070B500260C4D0D4C641BA410A64209D1AB
:104B180000F082FF00260A4D0A4C641BA410A6422E
:104B280005D170BD55F8043B98470136EEE755F8B6
:104B3800043B98470136F2E7185B0008185B000849
:104B4800185B00081C5B000803460244934200D12E
:104B5800704703F8011BF9E70FB40A4B13B51C683B
:104B680024B1A36913B9204600F066F805AB2046C6
:104B7800049AA168019300F081F902B0BDE81040E1
:104B880004B070471C000020002310B50446C0E99B
:104B98000033C0E90433836081814366C281836145
:104BA800194608225C30FFF7CFFF054B2462636289
:104BB800044BA362044BE362044B236310BD00BFA4
:104BC80031540008535400088B540008AF540008AF
:104BD800014900F0AFB800BF8957000870B56825D3
:104BE8004A1E55430E4605F1740100F0C5F8044607
:104BF80040B10021C0E900160C30A06005F1680240
:104C0800FFF7A2FF204670BD014800F0B3B800BF0F
:104C1800E8010020014800F0AEB800BFE80100201C
:104C2800014800F0A7B800BFE3010020014800F0E8
:104C3800A2B800BFE301002010B50446FFF7F0FF5B
:104C4800A3691BB1BDE81040FFF7F0BFC4E91233F8
:104C58002365134B134A1B68A262A34208BF0123B2
:104C6800204608BFA36100F01FF86060204600F0EE
:104C78001BF8A060204600F017F800220421E0602D
:104C88006068FFF781FF01220921A068FFF77CFF18
:104C980002221221E068FFF777FF0123A361D1E721
:104CA800805A0008D94B0008F8B50746FFF7ACFF53
:104CB8001E4B1E68B36913B93046FFF7BDFF48366F
:104CC800D6E90134013B03D533680BB33668F7E7FF
:104CD800B4F90C50D5B9164B04F15800E360656679
:104CE80000F047F8FFF796FF08222946C4E9015566
:104CF800C4E904552560A56104F15C00FFF724FFB1
:104D0800C4E90D55C4E912552046F8BD6834D9E701
:104D180004213846FFF762FF044630600028D5D1E9
:104D2800FFF778FF0C233B60EEE700BF805A0008CE
:104D38000100FFFF2DE9F84306468846002700F1E9
:104D48004804D4E90195B9F1010905D52468002C76
:104D5800F7D13846BDE8F883AB89012B07D9B5F9F7
:104D68000E30013303D029463046C0470743683523
:104D7800E9E7704770477047F8B5CD1C25F0030583
:104D880008350C2D38BF0C25002D064601DBA9423D
:104D980003D90C2333600020F8BD00F0B1FD214990
:104DA8000A6814469CB9204F3B6823B9214630460F
:104DB80000F02AFB38602946304600F025FB431CEA
:104DC80023D10C233046336000F0A0FDE3E72368CD
:104DD8005B1B17D40B2B03D923601C44256004E00C
:104DE8006368A2420CBF0B605360304600F08EFD32
:104DF80004F10B00231D20F00700C21ACCD01B1AA7
:104E0800A350C9E722466468CCE7C41C24F0030415
:104E1800A042E3D0211A304600F0F6FA0130DDD185
:104E2800CFE700BFD8010020DC010020936810B450
:104E3800013B002B936007DA9469A34201DB0A293E
:104E480002D110BC00F034BB1368581C10601970F4
:104E5800084610BC7047F8B506460F461446D518E4
:104E6800AC4201D1002007E03A46304614F8011B55
:104E7800FFF7DCFF431CF3D1F8BD00002DE9F04F2C
:104E88000D461446984606469DB018B183690BB97D
:104E9800FFF7D2FE894B9D421BD175686B6ED9070F
:104EA80005D4AB899A0502D4A86DFFF763FFAB89D7
:104EB8001B0701D52B69EBB92946304600F05CFB8E
:104EC800C0B16B6EDC070ED54FF0FF301DB0BDE8EA
:104ED800F08F7B4B9D4201D1B568DFE7794B9D424E
:104EE80008BFF568DAE7AB899805EDD4A86DFFF738
:104EF80042FFE9E70023099320238DF82930302366
:104F08004FF00109CDF80C80DFF8BC818DF82A300C
:104F180023469A4613F8012B0AB1252AF9D1BAEB90
:104F2800040B0BD05B46224629463046FFF793FF19
:104F3800013000F0AA80099A5A4409929AF8003080
:104F4800002B00F0A28000234FF0FF32CDE90523AB
:104F58000AF1010A049307938DF853301A935446C3
:104F6800052214F8011B584800F0BCFC049AD8B973
:104F7800D10644BF20238DF85330130744BF2B2399
:104F88008DF853309AF800302A2B15D0544600205B
:104F98004FF00A0C079A214611F8013B303B092BC8
:104FA8004ED9B0B1079214E0A0EB080309FA03F355
:104FB8001343A2460493D2E7039B191D1B68039170
:104FC800002BBBBF5B4242F0020207930793B8BFB6
:104FD800049223782E2B0CD163782A2B35D1039B8E
:104FE80002341A1D1B680392002BB8BF4FF0FF3321
:104FF8000593DFF8E4A003225046217800F072FC04
:1050080040B14023A0EB0A0003FA00F0049B0134EE
:105018000343049314F8011B06222C488DF828102A
:1050280000F060FC00283FD0294B1BBB039B0733D3
:1050380023F0070308330393099B3B44099367E76D
:105048000C4601200CFB0232A5E700234FF00A0CA6
:10505800194601340593204610F8012B303A092AE5
:1050680003D9002BC5D00591C3E7044601230CFBE7
:105078000121F0E703AB00932A463046154B04A9FB
:10508800AFF300800746781CD6D16B6ED90705D4DC
:10509800AB899A0502D4A86DFFF76DFEAB895B0654
:1050A8003FF512AF099811E703AB00932A46304643
:1050B800084B04A900F082F8E4E700BFA45A0008EE
:1050C800C45A0008845A0008E45A0008EE5A000836
:1050D800000000005F4E0008EA5A00082DE9F0477A
:1050E800164699468A680B6907469342B8BF134625
:1050F800336091F843200C46DDF820800AB1013373
:1051080033602368990642BF3368023333602568E9
:1051180015F0060506D104F1190AE36832689B1AEE
:10512800AB4228DC94F84320131E226818BF0123E1
:1051380092062DD44946384604F14302C04701304F
:1051480020D02368E56803F00603042B18BF002568
:1051580032684FF00006A36808BFAD1A226908BF7D
:1051680025EAE5759342C4BF9B1AED181A34B54277
:105178001AD1002008E00123524649463846C04764
:10518800013003D14FF0FF30BDE8F0870135C4E7A7
:105198003020E11881F843005A1C94F84510224445
:1051A800023382F84310C5E70123224649463846B0
:1051B800C0470130E6D00136D9E700002DE9FF47A6
:1051C8000C46277E9146782F80469A460C9904F122
:1051D800430207D8622F0AD8002F00F0D980582F31
:1051E80000F0A48004F1420684F842703AE0A7F186
:1051F8006303152BF6D801A050F823F05D52000880
:1052080071520008ED510008ED510008ED510008F9
:10521800ED51000871520008ED510008ED510008E9
:10522800ED510008ED5100087F530008A152000815
:1052380061530008ED510008ED510008A153000822
:10524800ED510008A1520008ED510008ED51000889
:10525800695300080B6804F142061A1D1B680A60AE
:1052680084F842300123A4E0256808682E0600F17E
:1052780004030AD505680B60002D03DA2D236D425F
:1052880084F843300A235E4819E015F0400F05689A
:105298000B6018BF2DB2EFE70B682568181D086072
:1052A800280601D51D6802E06906FBD51D886F2F09
:1052B8000CBF08230A235248002184F8431066686B
:1052C800002EA8BF2168A660A4BF21F004012160B8
:1052D8000DB9002E4DD01646B5FBF3F103FB11575F
:1052E800C75D06F8017D2F46BB420D46F4D9082B51
:1052F8000BD12368DF0708D5236961689942DEBFAF
:10530800302306F8013C06F1FF36921B22614B461A
:1053180021464046CDF800A003AAFFF7DFFE013082
:105328004CD14FF0FF3004B0BDE8F087344884F822
:1053380045700E68236856F8045B1F060E6014D586
:10534800D90744BF43F0200323601DB9236823F025
:10535800200323601023AFE7236843F02003236072
:105368007823284884F84530E3E75E0648BFADB2A5
:10537800E6E71646BBE70B6826681D1D60690D60E9
:1053880035061B6801D5186002E07106FBD5188048
:10539800002316462361BAE70B681A1D0A601E68C7
:1053A80000213046626800F09DFA08B1801B6060F9
:1053B80063682361002384F84330A8E732464946EE
:1053C80040462369D0470130ABD023689B0713D4EC
:1053D800E068039B9842B8BF1846A4E70123324609
:1053E80049464046D04701309BD00135E3680399D0
:1053F8005B1AAB42F2DCEBE7002504F11906F5E78E
:10540800F55A0008065B000838B50023054D044628
:1054180008462B60FFF7A8F9431C02D12B6803B19B
:10542800236038BDEC01002010B50C46B1F90E1010
:1054380000F0BEFA0028ABBF636DA3891B1823F4E4
:105448008053ACBF6365A38110BD2DE9F0411F46B1
:105458008B890546DB050C46164605D50223002236
:10546800B1F90E1000F0C8F9A389324623F480532D
:10547800A38128463B46B4F90E10BDE8F04100F080
:1054880069B810B50C46B1F90E1000F0B5F9431C17
:10549800A38915BF606523F4805343F48053A38127
:1054A80018BFA38110BDB1F90E1000F0D3B80000E9
:1054B800F8B50E461446054618B183690BB9FFF7CF
:1054C800BBFB214B9C422BD16C68A369A360A389C9
:1054D8001A072FD523696BB323692068F6B2C01A5F
:1054E80063693746834204DC2146284600F048F9C0
:1054F80030BBA3680130013BA36023685A1C2260BB
:105508001E706369834204D0A389DB0706D50A2E7F
:1055180004D12146284600F033F988B93846F8BD49
:105528000A4B9C4201D1AC68CFE7094B9C4208BFAB
:10553800EC68CAE72146284600F01EF80028CBD0C0
:105548004FF0FF37EAE700BFA45A0008C45A000822
:10555800845A000838B50446084611460022054D0D
:105568002A601A46FEF7E6FD431C02D12B6803B1F8
:10557800236038BDEC010020324B70B51D6806462B
:105588000C4625B1AB6913B92846FFF755FB2E4BDE
:105598009C420FD16C68A389B4F90C2019072CD44C
:1055A800DD0611D40923336042F040034FF0FF3089
:1055B800A3813EE0254B9C4201D1AC68EBE7244B2C
:1055C8009C4208BFEC68E6E7580712D5616B41B109
:1055D80004F14403994202D0304600F09DF90023BB
:1055E8006363A38923F02403A381002363602369F1
:1055F8002360A38943F00803A38123694BB9A389D6
:1056080003F42073B3F5007F03D02146304600F041
:1056180029F9A089B4F90C2010F001030AD000235D
:10562800A36063695B42A361236943B910F08000FA
:10563800BAD170BD810758BF6369A360F4E7002041
:10564800F7E700BF1C000020A45A0008C45A00084D
:10565800845A000838B50023054D044608462B60D7
:10566800FFF7AEF8431C02D12B6803B1236038BDA5
:10567800EC0100208A892DE9F041054610070C4607
:1056880058D44B68002B05DC0B6C002B02DC002087
:10569800BDE8F081E66A002EF9D0002312F48052AA
:1056A8002F682B6032D0606DA3895A0705D56368CF
:1056B800C01A636B0BB1236CC01A00230246E66A5A
:1056C8002846216AB047431CA38906D129681D29A9
:1056D8002CD82A4ACA40D60728D5002262602269F7
:1056E800D904226004D5421C01D12B6803B9606536
:1056F800616B2F600029CAD004F14403994202D09B
:10570800284600F009F900206063C1E7216A0123F7
:105718002846B047411CC7D12B68002BC4D01D2B8D
:1057280001D0162B01D12F60B1E7A38943F04003C4
:10573800A381ADE70F69002FA9D0930718BF0023F5
:105748000E6808BF4B69A6EB07080F608B60B8F1BD
:10575800000F9CDD43463A462846216AA66AB047B0
:10576800002806DCA3894FF0FF3043F04003A381F3
:105778008EE70744A8EB0008E9E700BF01004020D6
:1057880038B50B6905460C4613B90025284638BDBF
:1057980018B183690BB9FFF74FFA144B9C421BD120
:1057A8006C68B4F90C30002BEFD0626ED00704D4CB
:1057B800990502D4A06DFFF7DDFA28462146FFF7C8
:1057C80059FF636E0546DA07E0D4A3899B05DDD44B
:1057D800A06DFFF7D0FAD9E7054B9C4201D1AC6820
:1057E800DFE7044B9C4208BFEC68DAE7A45A0008DC
:1057F800C45A0008845A000838B5044608461146B9
:105808000022054D2A601A46FEF7FEFF431C02D10E
:105818002B6803B1236038BDEC01002070B50E463B
:10582800B1F90E10144600291D4696B007DA002378
:105838002B60B3891A0610D44FF480630EE06A46D1
:1058480000F0C8F80028F2DB019A02F47042A2F5D1
:1058580000535A425A412A60EEE740230020236051
:1058680016B070BD8B8973B59D0706460C4607D5E3
:1058780004F14703236023610123636102B070BD13
:105888006A4601ABFFF7CAFF009905463046FFF7A5
:1058980073FA48B9B4F90C309A05EFD423F003032E
:1058A80043F00203A381E3E70D4BB362A3892060B1
:1058B80043F08003A381009B20616361019B5BB17E
:1058C8003046B4F90E1000F097F828B1A38923F0F8
:1058D800030343F00103A381A0890543A581CDE714
:1058E800D94B0008034610B5C9B202449342184682
:1058F80001D1002003E0047801338C42F6D110BDB9
:105908000148FFF737BA00BFE40100200148FFF75C
:1059180032BA00BFE401002038B50546002943D05B
:1059280051F8043C0C1F002BB8BFE418FFF7E8FF40
:105938001E4A1368104633B9636014602846BDE8F0
:105948003840FFF7E3BFA3420AD92168621893429F
:1059580001BF1A685B685218226063600460EDE753
:105968001A465B680BB1A342FAD911685018A042D5
:105978000BD120680144501883421160DED11868A9
:105988005B68014411605360D8E702D90C232B608F
:10599800D4E7206821188B4201BF19685B68091891
:1059A800216063605460C9E738BD00BFD80100209A
:1059B80038B50446084611460022054D2A601A46A5
:1059C800FEF7B4FE431C02D12B6803B1236038BD37
:1059D800EC01002038B50023064D04460846114660
:1059E8002B60FEF7F8FE431C02D12B6803B123603D
:1059F80038BD00BFEC01002038B50023054D044632
:105A080008462B60FEF7F6FE431C02D12B6803B153
:105A1800236038BDEC010020F8B500BFF8BC08BC15
:105A28009E467047F8B500BFF8BC08BC9E46704754
:105A380002030405060708090A0B0C0D0E0F1010C7
:105A480002030405060708090A0B0C0D0E0F1010B7
:105A580025640D0A00000000256C660D0A00000090
:105A68000000000000000000010203040607080906
:105A780000000000010203042000002000000000D4
:105A8800000000000000000000000000000000000E
:105A980000000000000000000000000000000000FE
:105AA80000000000000000000000000000000000EE
:105AB80000000000000000000000000000000000DE
:105AC80000000000000000000000000000000000CE
